:020000040800F2
:1000000060E00020D5320008957D0008977D00084B
:100010009B7D00089F7D0008A37D00080000000074
:10002000000000000000000000000000A77D0008A4
:10003000A97D000800000000AB7D0008AD7D000830
:10004000EF320008EF320008EF320008EF3200080C
:10005000EF320008EF320008DFE00008EF3200085E
:10006000EF320008EF320008EF320008EF320008EC
:10007000EF320008EF320008EF320008EF320008DC
:10008000EF320008EF320008EF320008EF320008CC
:10009000EF320008EF320008EF320008EF320008BC
:1000A000EF320008EF320008EF320008EF320008AC
:1000B0003925000801610008EDCD0008EF32000885
:1000C000EF320008EF320008EF320008EF3200088C
:1000D000EF320008637100083773000823750008C9
:1000E0006FE00008EF320008EF320008EF3200083E
:1000F000EF320008EF320008EF320008EF3200085C
:10010000EF320008EF3200088D610008EF3200087E
:10011000EB760008237800089BDC0008EF3200082B
:10012000EF320008EF320008EF320008EF3200082B
:1001300000F002F800F0B0F80AA090E8000C824449
:100140008344AAF10107DA4501D100F0A5F8AFF226
:10015000090EBAE80F0013F0010F18BFFB1A43F0A5
:1001600001031847F0AE020010AF02000A444FF03E
:10017000000C10F8013B13F0070408BF10F8014B06
:100180001D1108BF10F8015B641E05D010F8016B4B
:10019000641E01F8016BF9D113F0080F1EBF10F8AF
:1001A000014BAD1C0C1B09D16D1E58BF01F801CBD2
:1001B000FAD505E014F8016B01F8016B6D1EF9D555
:1001C0009142D6D37047000000230024002500266A
:1001D000103A28BF78C1FBD8520728BF30C148BFAA
:1001E0000B6070476E291DF08A8470291EF0018013
:1001F000662921F05083652921F04D83672921F07C
:100200004A836129AFF3008003681B0A28BF41F0CD
:10021000800169291DF03C8164291DF0398175290F
:100220001DF036816F291DF08F8778291DF0CD874D
:10023000E9291DF02987E4291DF02687F5291DF0FD
:100240002387EF291DF08C87F8291DF0CC870368E0
:10025000DB0928BF41F0800163291DF098867329CE
:100260001DF09D86E3291EF0FF80F3291EF0048116
:10027000002070471FB51EF05BF80400002000212D
:1002800020F04EF9401C60600020002120F032F97F
:10029000E0601FBD10B510BD1EF0F4F91146FFF768
:1002A000E9FF07F0DDFC1EF073FC03B4FFF7F2FF7B
:1002B00003BC06F0F7FB000031490143314A1160ED
:1002C000704770B5002100230F22C47804B32D4C71
:1002D000246804F4E064C4F5E064210AC1F1040375
:1002E000CA40447804FA03F1847814402143090198
:1002F000254C0678A155047804F01F050124AC4074
:1003000005786D11AD0005F1E025C5F8004109E063
:10031000047804F01F050124AC401C4D06787611CA
:1003200045F8264070BD1A4A0A400243154B1B1F70
:100330001A60704739B1134A121D12680243114BFB
:100340001B1D1A6006E00F4A121D126882430D4BF6
:100350001B1D1A607047042808D14FF0E02109697D
:1003600041F004014FF0E022116107E04FF0E0217D
:10037000096921F004014FF0E0221161704700008B
:100380000000FA050CED00E000E400E080E100E090
:1003900080FFFF1F10B50121480700F0BCFD0021C0
:1003A0004FF0005000F0B7FD10BD30B50022002323
:1003B0005A4C226840F6FE748440A243D1E90045BD
:1003C0002C438D682C43CD6844EA050303FA00F4FE
:1003D0002243524C226030BD0021016041608160A7
:1003E000C160704739B14D4A1268012383401A43F6
:1003F0004A4B1A6006E0494A1268012383409A4337
:10040000464B1A60704741B1444A12684FF480531A
:1004100083401A43414B1A6007E0404A12684FF488
:10042000805383409A433D4B1A60704710B551B1D9
:100430003A4A121D126804090123A3401A43374B9C
:100440001B1D1A6009E0354A121D126804090123B8
:10045000A3409A43314B1B1D1A6010BD40B12F4978
:10046000091D096841F003012C4A121D116007E0C3
:100470002A49091D096821F00301284A121D11604B
:10048000704710B53AB1254B1B6801FA00F42343BD
:10049000224C236006E0214B1B6801FA00F4A343C1
:1004A0001E4C236010BD08B5002200921B4A00922A
:1004B00000F10802009B1A440092009A116008BDE6
:1004C00008B500220092154A009200F11402009B28
:1004D0001A440092009A116008BD30B50024002330
:1004E000082802D142EA012401E042EA01440B4B10
:1004F00000F120052B441C6030BD08B501460020EA
:100500000090064800902C2000EB9100009A1044C7
:1005100000900098006880B208BD000000740040A0
:1005200001684FF6FE7211400160002101604160D8
:100530008160C1608D49884208D18C490839496879
:1005400041F00F01894A083A51608AE08749143125
:10055000884208D185490839496841F0F001834A49
:10056000083A51607DE081492831884208D17F49AD
:100570000839496841F470617C4A083A516070E07A
:100580007A493C31884208D178490839496841F4B0
:100590007041764A083A516063E0744950318842AC
:1005A00008D172490839496841F470216F4A083A04
:1005B000516056E06D496431884208D16B49083971
:1005C000496841F47001694A083A516049E0674955
:1005D0007831884208D165490839496841F070612D
:1005E000624A083A51603CE06149884206D1011FE5
:1005F000096841F00F01021F116032E05C491431BB
:10060000884208D15A49091F096841F0F001584A47
:10061000121F116025E056492831884208D15449FB
:10062000091F096841F47061514A121F116018E0F6
:100630004F493C31884208D14D49091F096841F4AE
:1006400070414B4A121F11600BE0494950318842FA
:1006500007D14749091F096841F47021444A121F14
:100660001160704710B50022026847F6F0739A4394
:100670000C6A8B6823430C6923434C6923438C69C0
:100680002343CC6923434C6A23438C6A23431A4394
:100690000260CB6843600B6883604B68C36010BD29
:1006A0000021016041608160C1600161416181613F
:1006B000C161016241628162704721B1026842F00A
:1006C0000102026004E002684FF6FE731A40026005
:1006D00070471AB103680B43036002E003688B4361
:1006E00003607047416070470146486880B27047B8
:1006F00001460020002201F080531BB11C4B083B37
:100700001A6802E0194B083B1A6802EA01030BB1B0
:10071000012000E00020704700F0805119B1144919
:10072000091F086002E01149083948607047014616
:100730000020002201F080531BB10D4B083B1A68CA
:1007400002E00A4B083B1A6802EA01030BB10120E0
:1007500000E00020704700F0805119B10449091FE2
:10076000086002E00149083948607047080002400B
:1007700008040240002044490860091D0860091D62
:100780000860091D086041483F49143108607047FE
:1007900000213D498279002A3AD00A46126803684E
:1007A0009A430B461A600A1D126803689A430B1D90
:1007B0001A60027911440A6803681A430A60324ACF
:1007C0000832126803689A432F4B08331A601A1DC7
:1007D000126803689A432C4B0C331A604279102A32
:1007E0000ED11A1F126803681A43274B08331A6088
:1007F0001A1D126803681A43234B0C331A600DE06C
:100800002149427911440A6803681A430A6005E0E5
:10081000027911440A6803689A430A60704700210C
:10082000016001710C2141710021817170471649ED
:10083000103109680143144A1032116070470146B3
:100840000020114A143212680A400AB1012000E067
:10085000002070470C4914310860704701460020A1
:100860000022094B1B6803EA0102074B14331B6883
:100870000B4013B10AB1012000E00020704702498B
:10088000143108607047000000040140FFFF0F00B2
:1008900010B50446CC48844208D10121042000F060
:1008A0002DFB0021042000F029FB46E0C7488442CC
:1008B00008D10121082000F021FB0021082000F0D0
:1008C0001DFB3AE0C248844208D10121102000F00B
:1008D00015FB0021102000F011FB2EE0BD488442E2
:1008E00008D10121202000F009FB0021202000F088
:1008F00005FB22E0B848844208D10121402000F0E5
:10090000FDFA0021402000F0F9FA16E0B3488442D5
:1009100008D10121802000F0F1FA0021802000F0B0
:10092000EDFA0AE0AE48844207D10121801500F0BB
:10093000E5FA0021A01500F0E1FA10BD10B5012183
:10094000084600F0DBFA0021012000F0D7FA10BDC4
:100950002DE9F04102460025002600200023002456
:10096000002791F803C00CF00F0591F803C00CF0BC
:10097000100CBCF1000F03D091F802C04CEA050541
:1009800091F800C0BCF1000F31D0146800202BE0BA
:100990004FF0010C0CFA00F3B1F800C00CEA0306AA
:1009A0009E4220D183004FF00F0C0CFA03F7BC439A
:1009B00005FA03FC4CEA040491F803C0BCF1280FCB
:1009C00006D14FF0010C0CFA00FCC2F814C00AE08A
:1009D00091F803C0BCF1480F05D14FF0010C0CFA9F
:1009E00000FCC2F810C0401C0828D1D31460B1F834
:1009F00000C0BCF1FF0F34DD546800202EE000F190
:100A0000080C4FF0010808FA0CF3B1F800C00CEA2A
:100A100003069E4221D183004FF00F0C0CFA03F71E
:100A2000BC4305FA03FC4CEA040491F803C0BCF192
:100A3000280F05D100F1080C08FA0CF8C2F8148050
:100A400091F803C0BCF1480F07D100F1080C4FF03A
:100A5000010808FA0CF8C2F81080401C0828CED310
:100A60005460BDE8F0814FF6FF7101800221817072
:100A70000421C17070470246002093680B400BB1FF
:100A8000012000E0002070470146886880B270476E
:100A900002460020D3680B400BB1012000E000208B
:100AA00070470146C86880B2704701617047416174
:100AB00070470AB1016100E041617047C160704751
:100AC0004FF480320A438261816182618269826966
:100AD000704702460020434B18684FF68073184059
:100AE00040EA021008433F4B186070473E49C86116
:100AF0007047F0B50A46002300240021002500F0CD
:100B00000046B6F1004F02D1364EF16901E0354E94
:100B10007168C0F3034583B200F44016B6F5401F78
:100B200008D121F070612F4E766826F070662D4F47
:100B30007E6012E000F48016B6F5801F06D1032611
:100B400006FA05F4A14341F0706106E0460D360156
:100B500003FA06F6B14341F0706122B1460D360149
:100B600003FA06F6314300F00046B6F1004F02D119
:100B70001C4EF16101E01B4E7160F0BD30B50022EA
:100B80008B071C0F0F2303FA04F2164B08338C104B
:100B900053F824309343134C08348D1044F8253017
:100BA00023468C1053F824308C07240F00FA04F4E9
:100BB00023430C4C08348D1044F8253030BD0A49CD
:100BC000DC3108607047000000080140000C014063
:100BD000001001400014014000180140001C0140B9
:100BE000002001400000014000002042DF48006872
:100BF00040F00100DD49086008464068DC490840D3
:100C0000DA49486008460068DA490840D749086070
:100C10000846006820F4802008600846406820F4F8
:100C2000FE0048604FF41F0088607047CF49096894
:100C300021F48031CD4A11601146096821F48021E8
:100C40001160B0F5803F03D0B0F5802F0ED106E0E3
:100C5000C649096841F48031C44A116007E0C349BC
:100C6000096841F4A021C14A116000E000BF00BF43
:100C7000704710B501460022002300204A11012AC6
:100C800002D1BA4C236806E0022A02D1B74C236A8B
:100C900001E0B64C636A01F01F02012494401C403D
:100CA0000CB1012000E0002010BD38B500200090FC
:100CB0000024002500BF3120FFF7DBFF0546009828
:100CC000401C00900098B0F5A06F01D0002DF2D02C
:100CD0003120FFF7CEFF08B1012400E000242046B8
:100CE00038BD01460020A14A106820F0F80040EA13
:100CF000C10010607047A04908607047024600209C
:100D00009A4B586820F47C1042EA01031843974B31
:100D10005860704798490866704701460020934A1A
:100D2000506820F003000843506070478F484068C7
:100D300000F00C007047014600208C4A506820F0FB
:100D4000F00008435060704701460020874A506811
:100D500020F4E06008435060704701460020834A59
:100D6000506820F4605040EAC1005060704729B1DB
:100D70007E4A527A02437D4B5A7204E07B4A527A91
:100D800082437A4B5A7270477B49D831086070476A
:100D900001460020754A506820F4404008435060E6
:100DA00070470021714A20321170704A82F8201079
:100DB000012802D004280AD104E001216B4A203224
:100DC000117005E00521694A2032117000E000BF72
:100DD00000BF70476949086070476449096A014368
:100DE000624A11627047654944390860704730B5FE
:100DF00000210022002400235C4D6D6805F00C01E9
:100E000021B1042905D0082923D105E05C4D0560F6
:100E100022E05B4D05601FE0544D6D6805F47012D3
:100E2000524D6D6805F48034022505EB92421CB9E1
:100E3000544D554305600BE04C4D6D6805F400358D
:100E40001DB1504D5543056002E04D4D55430560C1
:100E500002E04B4D056000BF00BF444D6D6805F0DA
:100E6000F0010909484D6B5C0568DD4045603F4D68
:100E70006D6805F4E061090A434D6B5C4568DD402F
:100E800085603A4D6D6805F46051C90A3E4D6B5C52
:100E90004568DD40C560354D6D6805F44041890BFE
:100EA0003A4D6B5CC568B5FBF3F5056130BD29B102
:100EB0002E4A526902432D4B5A6104E02B4A526973
:100EC00082432A4B5A61704729B1284A92690243EA
:100ED000264B9A6104E0254A92698243234B9A612A
:100EE000704729B1214AD2690243204BDA6104E0FC
:100EF0001E4AD26982431D4BDA61704729B11B4AF1
:100F0000D2680243194BDA6004E0184AD26882437F
:100F1000164BDA60704729B1144A12690243134B29
:100F20001A6104E0114A12698243104B1A6170473A
:100F300012494039086070470F49C86470470B492F
:100F4000C87170470948406A40F08070074948629C
:100F5000704701460020054A92680A400AB1012004
:100F600000E000207047014988727047001002407D
:100F70000000FFF8FFFFF6FE0000424280044242FC
:100F800000127A0000093D0000000020100000203F
:100F900010B50446FE48844208D10121C014FFF771
:100FA000ADFF0021E014FFF7A9FFC4E0B4F1804FCA
:100FB00008D101210846FFF7AEFF00210120FFF70D
:100FC000AAFFB8E0F348844208D101210220FFF7CC
:100FD000A2FF00210220FFF79EFFACE0EE48844212
:100FE00008D101210420FFF796FF00210420FFF71C
:100FF00092FFA0E0E948844208D101210820FFF7D0
:101000008AFF00210820FFF786FF94E0E44884422D
:1010100008D101211020FFF77EFF00211020FFF7EB
:101020007AFF88E0DF48844208D101212020FFF7C1
:1010300072FF00212020FFF76EFF7CE0DA48844237
:1010400008D101214014FFF759FF00216014FFF778
:1010500055FF70E0D548844209D10121C804FFF74B
:101060004DFF00214FF40020FFF748FF63E0D04818
:10107000844209D101210805FFF740FF00214FF408
:101080008010FFF73BFF56E0CA48844209D1012196
:101090004805FFF733FF00214FF40010FFF72EFF44
:1010A00049E0C548844208D101214020FFF733FFC1
:1010B00000214020FFF72FFF3DE0C048844208D1C7
:1010C00001218020FFF727FF00218020FFF723FF69
:1010D00031E0BB48844208D101218015FFF71BFF96
:1010E0000021A015FFF717FF25E0B648844209D17B
:1010F00001210804FFF702FF00214FF48030FFF7C1
:10110000FDFE18E0B048844209D101214804FFF7F0
:10111000F5FE00214FF40030FFF7F0FE0BE0AB4886
:10112000844208D101218804FFF7E8FE00214FF432
:101130008020FFF7E3FE10BD00220288944B984206
:101140000ED0994B98420BD0B0F1804F08D0914B04
:10115000984205D0904B984202D0904B984204D1CF
:101160004FF68F731A404B881A438D4B984207D025
:101170008C4B984204D04FF6FF431A40CB881A4359
:1011800002808B8883850B880385814B98420BD026
:10119000854B984208D08B4B984205D08A4B984299
:1011A00002D08A4B984201D10B7A038601238382B5
:1011B000704770B5002400220023058C4FF6FE76A0
:1011C00035400584028C8388048B4FF68F752C4044
:1011D000B51E2C400D882C43751E2A400D892A43CC
:1011E0004D882A436A4DA8420BD06F4DA84208D0C3
:1011F000744DA84205D0744DA84202D0734DA84248
:1012000013D14FF6F7752A404D892A434FF6FB75E7
:101210002A408D882A434FF6FF652B404FF6FF5535
:101220002B408D892B43CD892B4383800483CD882C
:101230008586028470BD70B5002400220023058CD1
:101240004FF6EF7635400584028C8388048B48F690
:10125000FF752C404FF6FF452C400D884FF6FF766A
:1012600006EA05252C434FF6DF752A400D8906EA6C
:1012700005152A434D8806EA05152A43444DA84220
:1012800002D0494DA8421DD14FF67F752A404D89A5
:101290004FF6FF7606EA05152A434FF6BF752A403A
:1012A0008D8806EA05152A434FF6FF352B404FF28D
:1012B000FF752B408D8906EA85052B43CD8906EA0B
:1012C00085052B4383800483CD880587028470BD08
:1012D00070B5002400220023058C4FF6FF663540D0
:1012E0000584028C8388848B4FF68F752C404FF6D3
:1012F000FC752C400D882C434FF6FF552A400D8974
:101300004FF6FF7606EA05252A434D8806EA0525AD
:101310002A431F4DA84202D0234DA8421DD14FF2AF
:10132000FF752A404D894FF6FF7606EA05252A43C8
:101330004FF6FF352A408D8806EA05252A434EF6EA
:10134000FF752B404DF6FF752B408D8906EA05157C
:101350002B43CD8906EA05152B4383808483CD88F2
:101360008587028470BD70B5002200230024058C9F
:101370004EF6FF7635400584038C8488828B48F6D0
:10138000FF752A404FF6FF452A400D8820E00000F7
:10139000002C01400004004000080040000C004008
:1013A000001000400014004000340140004C014097
:1013B000005001400054014000180040001C004053
:1013C000002000400040014000440140004801402E
:1013D0004FF6FF7606EA05252A434DF6FF752B40AA
:1013E0000D8906EA05352B434D8806EA05352B4362
:1013F000FA4DA84202D0FA4DA84208D14BF6FF752B
:101400002C408D894FF6FF7606EA85152C438480A3
:101410008283CD88A0F84050038470BD828B4FF248
:10142000FF331A408283828B4FF6FF7303EA012356
:101430001A4382837047F0B50C46154600220021FE
:101440000026078C4EF6FF7C07EA0C070784828B88
:10145000018C4FF6FF7707EA043640F6FF473A4023
:101460004FF6FF7707EA05273A434FF6FF7707EA7B
:1014700003373A43D94FB8420ED0D94FB8420BD0B8
:10148000B0F1804F08D0D74FB84205D0D64FB84200
:1014900002D0D64FB84206D14DF6FF77394046F418
:1014A0008057394305E047F6FF57394044F48057E9
:1014B000394382830184F0BD828B4FF6F3731A4067
:1014C0008283828B0A4382837047F0B50C461546AF
:1014D000002200210026078C4FF6FF6C07EA0C075C
:1014E0000784828B018C4FF6FF7707EA04264FF6BC
:1014F0000C773A404FF6FF7707EA03172F433A433A
:10150000B64FB8420ED0B64FB8420BD0B0F1804FB4
:1015100008D0B44FB84205D0B34FB84202D0B34F51
:10152000B84206D14FF6FF57394046F48077394329
:1015300005E04FF2FF57394044F480773943828306
:101540000184F0BD028B4FF2FF331A400283028BFD
:101550004FF6FF7303EA01231A4302837047F0B585
:101560000C461546002200210026078C4FF6EF7C22
:1015700007EA0C070784028B018C4FF6FF7707EA16
:10158000041640F6FF473A404FF6FF7707EA033765
:101590003A434FF6FF7707EA05273A438F4FB842A1
:1015A0000ED08F4FB8420BD0B0F1804F08D08D4F86
:1015B000B84205D08C4FB84202D08C4FB84206D109
:1015C0004FF6DF77394046F01007394305E04FF614
:1015D0005F77394044F01007394302830184F0BD3E
:1015E000028B4FF6F3731A400283028B0A43028385
:1015F0007047F0B50C46154600220021068C4FF6C8
:10160000FE773E400684028B018C4FF60C7632400A
:101610007E1C06EA03162E433243704EB0420ED0B3
:101620006F4EB0420BD0B0F1804F08D06D4EB0423B
:1016300005D06D4EB04202D06C4EB04206D14FF68E
:10164000FD76314044F00106314305E04FF6F57672
:10165000314044F00106314302830184F0BD70B58E
:1016600005460C465D4885420ED05D4885420BD04C
:10167000B5F1804F08D05B48854205D05A48854275
:1016800002D05A48854200D100E000BF208850B9FE
:101690002389A28861882846FFF7ABFFE1882846A6
:1016A000FFF79EFF25E0208804280AD12389A2881D
:1016B00061882846FFF753FFE1882846FFF742FF7D
:1016C00017E0208808280AD12389A2886188284643
:1016D000FFF7FBFEE1882846FFF7EEFE09E02389CD
:1016E000A28861882846FFF7A6FEE1882846FFF712
:1016F00095FE70BD2DE9F04105460C4600260127F8
:10170000608808B9022600E00026A088012801D1DF
:10171000022700E001272088A0B92389A2886188D8
:101720002846FFF766FFE1882846FFF759FF23891F
:101730003A4631462846FFF712FFE1882846FFF770
:1017400001FF13E02389A28861882846FFF707FF7D
:10175000E1882846FFF7F6FE23893A4631462846B7
:10176000FFF747FFE1882846FFF73AFFBDE8F08121
:101770000A884B881A438B881A43CB881A430B89F3
:101780001A434B891A438B891A43A0F844207047A7
:101790004FF6FF71818000210180C180418001727C
:1017A00070470021018041808180C1800181418199
:1017B0008181C181704700210180418001218180A8
:1017C0000021C1800181704700210180418081801A
:1017D000C18001814181818170470000002C01405E
:1017E000003401400004004000080040000C0040AC
:1017F00021B1028842F00102028004E002884FF623
:10180000FE731A400280704731B1B0F8442042F4B0
:101810000042A0F8442005E0B0F84420C2F30E02D4
:10182000A0F8442070471AB183890B43838102E0FA
:1018300083898B43838170478182704741EA020329
:10184000A0F8483070471AB183890B43838102E0C6
:1018500083898B438381704701894FF6F872114069
:10186000018170470A46002101894FF68F731940A4
:1018700011430181704730B504460D462946204684
:10188000FFF7F0FF208940F00700208130BD2DE9EF
:10189000F04104460D4616461F46602D06D13B46D4
:1018A000012231462046FFF75AFE05E03B46012261
:1018B00031462046FFF79DFE29462046FFF7D2FF1E
:1018C000208940F007002081BDE8F08130B50C464A
:1018D00000210189C9B24FF6FF7505EA03251543BA
:1018E00025432943018130BD2DE9F04105460E46CF
:1018F00017469846002443463A4631462846FFF7A5
:10190000E5FF2C894FF6F870044044F007044FF6C9
:101910008F70044044F070042C81BDE8F081F0B574
:1019200004460D4616461F463B463246294620468B
:10193000FFF7CCFF208940F480402081F0BD018575
:10194000828270470A46002101884FF68F73194042
:10195000114301807047F0B50C4615461E46002124
:10196000002200230189028B038C4FF6F87739405F
:1019700021434FF6FC473A4040F201173A434FF6F5
:10198000DD773B404FF6FF7707EA06172F433B43CF
:10199000018102830384F0BD0A460021018B4FF6CA
:1019A0008F7319401143018370470A460021018B50
:1019B00048F6FF7319404FF6FF7303EA02231943F9
:1019C000018370470A460021818B4FF68F731940BF
:1019D0001143818370470A460021818B48F6FF73CB
:1019E00019404FF6FF7303EA0223194381837047BE
:1019F00021B1028842F08002028004E002884FF6A2
:101A00007F731A400280704721B1828842F004023D
:101A1000828004E082884FF6FB731A408280704710
:101A200021B1828842F00802828004E082884FF669
:101A3000F7731A408280704721B1828842F0010218
:101A4000828004E082884FF6FE731A4082807047DD
:101A50000A460021018B4FF6F773194011430183A9
:101A600070470A460021018B4FF2FF7319404FF671
:101A7000FF7303EA02231943018370470A460021DA
:101A8000818B4FF6F77319401143818370470A46E3
:101A90000021818B4FF2FF7319404FF6FF7303EA69
:101AA00002231943818370470A460021018B4FF6B8
:101AB000FB7319401143018370470A460021018BD3
:101AC0004FF6FF3319404FF6FF7303EA0223194321
:101AD000018370470A460021818B4FF6FB73194042
:101AE0001143818370470A460021818B4FF6FF33F3
:101AF00019404FF6FF7303EA0223194381837047AD
:101B00000A460021018B4FF67F7319401143018370
:101B100070470A460021018BC1F30E014FF6FF7397
:101B200003EA02231943018370470A460021818B8F
:101B30004FF67F7319401143818370470A46002195
:101B4000818BC1F30E014FF6FF7303EA02231943A1
:101B5000818370470A460021018C4FF6FD731940BE
:101B60001143018470470A460021018C4FF6F77338
:101B700019401143018470470A460021018C4FF639
:101B8000DF7319404FF6FF7303EA02131943018410
:101B900070470A460021018C4FF67F7319404FF6BB
:101BA000FF7303EA02131943018470470A460021B8
:101BB000018C4FF6FF5319404FF6FF7303EA0223DF
:101BC0001943018470470A460021018C4FF2FF73CC
:101BD00019404FF6FF7303EA02231943018470474B
:101BE0000A460021018C4DF6FF7319404FF6FF7332
:101BF00003EA023319430184704730B500230124FE
:101C00008C40A3B2048C9C430484048C02FA01F53A
:101C1000ADB22C43048430BD30B5002304248C4085
:101C2000A3B2048C9C430484048C02FA01F5ADB287
:101C30002C43048430BD70B50346002000241846B0
:101C4000183001258D40ACB21D8CA5431D8409B10F
:101C5000082909D100EB6100056825F070050560D1
:101C60000568154305600EE00D1FC5F34E052844B9
:101C7000056825F4E045056005684FF6FF7606EA3D
:101C800002263543056070BD21B1028842F0020290
:101C9000028004E002884FF6FD731A40028070470C
:101CA00021B1028842F00402028004E002884FF66B
:101CB000FB731A400280704721B1828842F0800293
:101CC000828004E082884FF67F731A4082807047DA
:101CD00002884FF6F7731A40028002880A43028096
:101CE000704782884FF68F731A40828082880A4339
:101CF0008280704702894FF6F8731A400281028988
:101D00000A430281704702894FF67F731A400281AD
:101D100002890A4302817047818470478185704738
:101D2000818670470187704781877047A0F840100F
:101D3000704702884FF6FF431A40028002880A4328
:101D4000028070470146888E70470146088F7047B1
:101D50000146888F70470146B1F840007047014640
:101D6000888C70470146088D704702460020138A10
:101D70000B400BB1012000E000207047CA430282F3
:101D8000704730B50246002000230024158A05EA7A
:101D90000103958905EA010413B10CB1012000E0AB
:101DA000002030BDCA4302827047000010B50446CF
:101DB000FB48844209D101218803FFF79FF80021E5
:101DC0004FF48040FFF79AF832E0F648844209D198
:101DD00001214804FFF79FF800214FF40030FFF77E
:101DE0009AF825E0F048844209D101218804FFF7E0
:101DF00092F800214FF48020FFF78DF818E0EB48AF
:101E0000844209D10121C804FFF785F800214FF46D
:101E10000020FFF780F80BE0E548844208D101215B
:101E20000805FFF778F800214FF48010FFF773F8EA
:101E300010BD2DE9F04786B005460E460024A246A7
:101E400000BFA1460027B08900B100BF2F462C8AF1
:101E50004CF6FF700440F08804432C82AC894EF6A7
:101E6000F3100440B0883189084371890843044362
:101E7000AC81AC8A4FF6FF400440B0890443AC8289
:101E800001A8FEF7B4FFC648874202D1DDF810A0D2
:101E900001E0DDF80CA0A88900F4004040B10AEB95
:101EA000CA0000EB0A1031684900B0FBF1F807E006
:101EB0000AEBCA0000EB0A1031688900B0FBF1F8A8
:101EC0006420B8FBF0F004012009642101FB1089B3
:101ED000A88900F4004040B1322000EBC900B0FBFB
:101EE000F1F000F00700044308E0322000EB091095
:101EF0006421B0FBF1F000F00F0004432C8106B028
:101F0000BDE8F0874FF41651016000218180C18047
:101F100001810C21418100218181704710B5024669
:101F20000020108A4FF2FF0318400B884C8823438F
:101F30008C882343CC8823431843108210BD002192
:101F4000018041808180C180704721B1828942F443
:101F50000052828104E082894DF6FF731A4082812B
:101F60007047F0B50346002400260025002040F607
:101F70006A17B94200D100BF1846C1F3421401F0FC
:101F80001F06012707FA06F5012C01D10C3004E0E9
:101F9000022C01D1103000E014301AB107682F4331
:101FA000076002E00768AF430760F0BD1AB1838A9B
:101FB0000B43838202E0838A8B4383827047028AC9
:101FC0004FF6F0731A400282028A0A430282704777
:101FD00082894FF2FF731A40828182890A4382818B
:101FE000704721B1828942F00202828104E0828935
:101FF0004FF6FD731A4082817047028A4FF6DF73F5
:102000001A400282028A0A430282704721B1028A80
:1020100042F48042028204E0028A4BF6FF731A40C7
:1020200002827047C1F308028280704701468888A7
:10203000C0F308007047818941F001018181704738
:10204000028BD2B20283028B42EA012202837047E2
:10205000028B02F47F420283028B0A4302837047A1
:1020600021B1828A42F02002828204E0828A4FF605
:10207000DF731A408282704721B1828A42F01002D7
:10208000828204E0828A4FF6EF731A4082827047A0
:1020900021B1828A42F00802828204E0828A4FF6ED
:1020A000F7731A408282704721B1828942F400425C
:1020B000828103E08289C2F30E028281704721B1DE
:1020C000828A42F40062828204E0828A4FF2FF73C5
:1020D0001A4082827047828A4FF6FB731A408282CE
:1020E000828A0A438282704721B1828A42F00202C8
:1020F000828204E0828A4FF6FD731A408282704722
:1021000002460020B1F5007F00D100BF13880B40CC
:102110000BB1012000E00020704701F40072B2F51D
:10212000007F00D100BFCA430280704770B50246ED
:10213000002400230025002040F66A16B14200D199
:1021400000BFC1F3421501F01F03012606FA03F395
:10215000012D02D19689334006E0022D02D1168A64
:10216000334001E0968A33400C12012606FA04F44B
:102170001688344013B10CB1012000E0002070BD7E
:1021800010B50022002340F66A14A14200D100BF1E
:102190000A1201249440A3B2DC43048010BD000065
:1021A000003801400044004000480040004C00401E
:1021B0000050004010B56FF00400FEF7CCF82E4838
:1021C00000682E49B0FBF1F02D49087008460078F0
:1021D00000EB4001C1EBC0104FF6FF7101EAC000F7
:1021E0002849088010BD0146254A12784A434FF01D
:1021F000E0235A6100229A611A46126942F00102F4
:102200001A6100BF4FF0E022106900F001021AB11C
:1022100000F48032002AF5D04FF0E022126922F05B
:1022200001024FF0E0231A6100229A6170470146D3
:10223000144A12884A434FF0E0235A6100229A61FF
:102240001A46126942F001021A6100BF4FF0E02203
:10225000106900F001021AB100F48032002AF5D0B2
:102260004FF0E022126922F001024FF0E0231A61E0
:1022700000229A6170470000D001002000127A000D
:10228000140000201600002010B58CB004461E2358
:102290000BAA03A9204600F021FE0090009810B17F
:1022A00001200CB010BD9DF82C00044400200B90C0
:1022B0000EE0BA489DF82C2050F8221003A800F038
:1022C00075FD00B908E09DF82C00401CC0B20B90D1
:1022D0009DF82C000728ECD300BF9DF82C000728A0
:1022E00075D2DFE800F00405244675A0CB0000BFDE
:1022F000ABA003F023F9ABA003F020F9AFA003F0EB
:102300001DF9B4A003F01AF9B8A003F017F9BEA0A4
:1023100003F014F9C3A003F011F9D0A003F00EF9F3
:10232000DCA003F00BF9E8A003F008F9D3E09CA0CF
:1023300003F004F9F1A003F001F900200B900EE086
:10234000FE4800689DF82C2000EBC2004168FCA00C
:1023500003F0F4F89DF82C00401CC0B20B90F74835
:10236000007D9DF82C108842EADC8DA003F0E6F891
:10237000B1E08BA003F0E2F8F3A003F0DFF8002057
:102380000B901AE0ED4909689DF82C2001EBC20181
:1023900001AB02AA486803A900F0C6FDE74800683F
:1023A0009DF82C1050F8312003A9F7A003F0C6F8CF
:1023B0009DF82C00401CC0B20B90E048007D9DF8B9
:1023C0002C108842DEDC76A003F0B8F883E080E0D1
:1023D00073A003F0B3F80BAA03A9204600F080FE17
:1023E0009DF82C00C8B9694603A800F012FD0B90B7
:1023F0009DF82C0020B9E9A0009903F09FF80EE0A9
:102400009DF82C00042801D002204AE7E6A003F042
:1024100095F80120C949C87501E0022041E760A094
:1024200003F08CF857E05EA003F088F80BAA03A92C
:10243000204600F055FE9DF82C00C8B9694603A857
:1024400000F0E7FC0B909DF82C0020B9DBA0009970
:1024500003F074F80EE09DF82C00042801D002204F
:102460001FE7D9A003F06AF80020B449C87501E05D
:10247000022016E74AA003F061F82CE048A003F020
:102480005DF80BAA03A9204600F02AFE9DF82C0057
:10249000C8B9694603A800F0BCFC0B909DF82C005D
:1024A00078B9A649009881F8EC00084690F8EC004D
:1024B00018B1CAA003F042F807E0CFA003F03EF83D
:1024C00003E00220EDE60220EBE635A003F036F84B
:1024D00001E00120E5E600BF0020E2E64FF0804089
:1024E000008A20F001004FF0804108824FF6FF7013
:1024F0008885002088849149C1F8F00070474FF02A
:102500008040008A00F0010040B18C48D0F8F00013
:102510004FF6FF7108448949C1F8F0008748D0F8A8
:10252000F0004FF08041898C08448449C1F8F000E4
:102530000846D0F8F000704710B54FF08040008A90
:1025400000F0010048B17D490869804700204FF044
:10255000804188844FF47A7088854FF08040008AEB
:1025600020F001004FF08041088210BD7FB5054684
:102570000C4601210846FEF7B4FCADF80850ADF852
:1025800004400020ADF80A00ADF8060001A94FF0A4
:102590008040FEF7D1FD012241213BE118000020DF
:1025A0000D0A000055534D415254D3D037B8F6CFE1
:1025B000B5CDB3C3FCC1EE3A0D0A00003F3A20206E
:1025C00020202020BBF1C8A1B0EFD6FAD0C5CFA201
:1025D0000D0A000068656C703A202020BBF1C8A18C
:1025E000B0EFD6FAD0C5CFA20D0A00006C697374A3
:1025F0003A202020BFC9D3C3B5C4BAAFCAFDC1D0E9
:10260000B1ED0D0A0A00000069643A202020202064
:10261000BFC9D3C3BAAFCAFDB5C44944C1D0B1ED37
:102620000D0A0A006865783A20202020B2CECAFD43
:102630003136BDF8D6C6CFD4CABE2CBAF3B8FABF6D
:10264000D5B8F12BCAFDD7D6BCB4D6B4D0D0BDF81E
:10265000D6C6D7AABBBB0D0A0A0000006465633A60
:1026600020202020B2CECAFD3130BDF8D6C6CFD44E
:10267000CABE2CBAF3B8FABFD5B8F12BCAFDD7D66B
:10268000BCB4D6B4D0D0BDF8D6C6D7AABBBB0D0A51
:102690000A00000072756E74696D653A312CBFAA2C
:1026A000C6F4BAAFCAFDD4CBD0D0BCC6CAB13B3099
:1026B0002CB9D8B1D5BAAFCAFDD4CBD0D0BCC6CA1C
:1026C000B13B0D0A0A000000C7EBB0B4D5D5B3CCBE
:1026D000D0F2B1E0D0B4B8F1CABDCAE4C8EBBAAF29
:1026E000CAFDC3FBBCB0B2CECAFDB2A2D2D4BBD825
:1026F000B3B5BCFCBDE1CAF82E0D0A002D2D2D2D61
:102700002D2D2D2D2D2D2D2D2D2D2D2D2D2D2D2DF9
:102710002D2D2D2D2DBAAFCAFDC7E5B5A52D2D2D1B
:102720002D2D2D2D2D2D2D2D2D2D2D2D2D2D2D2DD9
:102730002D2D2D2D2D2D2D2D200D0A008400002056
:1027400025730D0A000000002D2D2D2D2D2D2D2D72
:102750002D2D2D2D2D2D2D2D2D2D2D2D2D2D2D2DA9
:102760002DBAAFCAFD204944202D2D2D2D2D2D2D04
:102770002D2D2D2D2D2D2D2D2D2D2D2D2D2D2D2D89
:102780002D2D2D2D200D0A002573206964206973DD
:102790003A0D0A3058253038580D0A004845583A45
:1027A000305825580D0A00003136BDF8D6C6B2CED5
:1027B000CAFDCFD4CABE210D0A0000004445433AE9
:1027C000256C750D0A0000003130BDF8D6C6B2CEBA
:1027D000CAFDCFD4CABE210D0A00000052756E207A
:1027E00054696D652043616C63756C6174696F6ECB
:1027F000204F4E0D0A00000052756E2054696D6521
:102800002043616C63756C6174696F6E204F46463E
:102810000D0A00008807FFF706F81C208DF800005D
:1028200003208DF801008DF8020001208DF80300CF
:102830006846FDF746FD01218807FEF7D9FF7FBDF9
:1028400010B5044604EBC40000EB04100122C2EBF7
:10285000800081B24FF47A70FFF788FE0120F749BB
:10286000C87510BD30B595B0054613AB12AA09A9BD
:10287000284600F059FB044614B1204615B030BD7F
:102880000020149026E0ED4909689DF8502001EBE6
:10289000C20113AB11AA486801A900F045FB044628
:1028A0000CB12046EAE709A901A800F07FFA60B957
:1028B0009DF844009DF84810884201DD0220DDE7C4
:1028C0009DF85000DD4988750AE09DF85000401CD5
:1028D000C0B21490D948007D9DF850108842D2DCD7
:1028E00000BFD648007D9DF85010884201D10420D9
:1028F000C4E714A9284600F064FC04460CB1204645
:10290000BCE79DF85000CD4948750020B6E72DE999
:10291000F0419AB0C948847D007DA04202DC1AB023
:10292000BDE8F081C549096801EBC40106AB07AAFF
:10293000486808A900F0F8FA08A9C1A002F0FEFD55
:10294000002644E0BD48008B0121B1400840D8B1C9
:102950002221BDA002F0F2FD304600F025FCB7496F
:10296000243147183946B9A002F0E8FD2221B6A06B
:1029700002F0E4FD304600F017FCB0492431084471
:1029800010A941F8260018E0304600F00DFCAB49D4
:102990002431085810A941F82600A848C07D30B954
:1029A00010A850F82610AAA002F0C8FD05E010A853
:1029B00050F82610A7A002F0C1FD9DF81C00401E93
:1029C000B04202D0A5A002F0B9FD701CC6B29DF8BD
:1029D0001C008642B6DBA2A002F0B0FDFFF77EFD30
:1029E0009648407D0B280DD2DFE800F0060D151E3D
:1029F00027323F4E5F7287009049096851F83400D2
:102A00008047054690E08D4A126852F834101098BD
:102A10008847054688E0894B1B6853F83420DDE978
:102A20001001904705467FE0844F3F6857F83430E7
:102A300010A807C89847054676E0DFF800C2DCF822
:102A400000C05CF8347010A80FC8B84705466BE0AA
:102A50001498DFF8E8C10090DCF800C05CF834702E
:102A600010A80FC8B84705465EE0DDE91401DFF89D
:102A7000CCC1CDE90001DCF800C05CF8347010A8CE
:102A80000FC8B84705464FE0DDE914121698DFF885
:102A9000ACC1CDE900120290DCF800C05CF83470E3
:102AA00010A80FC8B84705463EE0DDE91423DDE96C
:102AB0001610DFF888C1CDE90023CDE90210DCF85B
:102AC00000C05CF8347010A80FC8B84705462BE06A
:102AD000DDE91523DDE91710CDE90123CDE9031068
:102AE0001498DFF858C10090DCF800C05CF834702E
:102AF00010A80FC8B847054616E0DDE91623DDE942
:102B00001810CDE90223CDE90410DDE91401DFF846
:102B10002CC1CDE90001DCF800C05CF8347010A8CD
:102B20000FC8B847054600BF00BFFFF7E8FC9DF897
:102B3000180001280CD14148C07D20B9294649A080
:102B400002F0FCFC07E0294648A002F0F7FC02E096
:102B500045A002F0F3FC394890F8EC0088B1374802
:102B6000D0F8F0000A21B0FBF1F201FB1207334864
:102B7000D0F8F000B0FBF1F83A4641463EA002F032
:102B8000DDFC00BFCBE630B5A1B001A9424804F09E
:102B9000AAF90546002D2BD02848816801A888474E
:102BA00004461CB92549C868804721E001A8FFF701
:102BB0006BFB0546012D00D02C46CCB1012C06D074
:102BC000022C08D0032C0AD0042C10D10BE033A027
:102BD00002F0B4FC0BE034A002F0B0FC07E035A03A
:102BE00002F0ACFC03E036A002F0A8FC00BF00BF7E
:102BF00021B030BD10B54FF4E13004F029FA35A111
:102C0000254803F09BFF394800683949B0FBF1F0D3
:102C1000C4B20A4841682046884702F0AEFB002152
:102C2000012002F08AFB33A002F088FC0020034957
:102C3000C875012081F8EC0077E0000084000020D6
:102C40000D0A25732800000025630000257300008D
:102C5000256C750030582558000000002C0000003D
:102C6000290000003D256C753B0D0A003D305825BC
:102C7000583B0D0A0000000046756E6374696F6E64
:102C80002052756E2054696D653A25642E25316495
:102C90006D730D0A0000000000380140BAAFCAFD94
:102CA000B4EDCEF3210D0A00B2CECAFDB4EDCEF3E1
:102CB000210D0A00B2CECAFDCCABB6E0210D0A0050
:102CC000CEB4D5D2B5BDC6A5C5E4B5C4BAAFCAFDAC
:102CD000210D0A0055534D415254206465627567B9
:102CE0002073746172742E2E2E0A0000D001002011
:102CF00040420F0055534D41525420626562756742
:102D00002E2E2E20000000000121C80300F080FFBD
:102D10004FF4FA70FFF78BFA00214FF4004000F0F7
:102D200077FF4FF4FA70FFF782FA0D480068012828
:102D3000EAD00B48001D00680128E5D000214FF0C3
:102D40008040FEF755FD4FF4964004F081F909F0FC
:102D50006BFC002010BD0146086870470160704799
:102D60000081214210B504460848C474C07C18B9DB
:102D700007A10A4803F0E2FE0448C07C012803D101
:102D800007A1064803F0DAFE10BD0000204B00202A
:102D9000D7D4B6AFC4A3CABD0000000000380140BC
:102DA000B5A5B2BDC4A3CABD0000000002460AE03A
:102DB00010780B78984201D001207047107800B944
:102DC00002E0521C491CF3E700BF0020F5E706E0D3
:102DD00002780A70027802B902E0401C491CF7E749
:102DE00000BF70470146002005E00A7802B903E001
:102DF000421CD0B2491CF8E700BF704710B502462C
:102E0000012000E050430B00A1F10104E1B2F9D12F
:102E100010BD2DE9F04307460E4600254FF00A0885
:102E20003C46002030601FE02078392802DC207802
:102E300030280ADA2078462802DC2078412804DA93
:102E40002078582809D1012D07D12078412801DBAD
:102E50004FF01008681CC5B205E0207800B904E006
:102E60000120BDE8F083641CDEE700BF3C46B8F1FA
:102E7000100F0FD1032D01DA0220F2E7207830285D
:102E800006D16078582803D1A41CA81EC5B204E05E
:102E90000320E6E70DB90420E3E71BE00DB1681E4F
:102EA000C5B22078392806DC2078302803DB20786A
:102EB000A0F1300902E02078A0F137092946404608
:102EC000FFF79CFF316809FB00103060641C20781C
:102ED00000B900E0E2E700BF0020C2E710B50446F9
:102EE000002010700BE020780870641C491C1078DA
:102EF000401C10701078984201DB012010BD207832
:102F0000202802D020780028EDD10020087000BFD2
:102F1000F4E70146491C00E0491C0878202801D14B
:102F20000029F9D1087870472DE9FF4F85B0804618
:102F300089460027002004900390012002904FF062
:102F4000000B002544461DE02078202816D005F00F
:102F50007F00052812DA0DB945F0800505F07F00E5
:102F6000042803D120782A2800D00EE0207805F02C
:102F70007F010DF80100681CC5B202E0852D00D16B
:102F800003E0641C20780028DED100BF8DB1002052
:102F900005F07F010DF80100CBA16846FFF706FFA1
:102FA00018B900210898017002E001210898017009
:102FB00000254FF0000A444614E0641C0AF10100A9
:102FC00000F0FF0A2078202802D020782A2809D192
:102FD0002046FFF79EFF0646282E03D02A2E01D05A
:102FE000CDF810A02078282802D020780028E4D13D
:102FF0004446049810B10498401C04444FF0000A61
:10300000002654E0207810B94FF0010A50E02078F3
:10301000282803D116B9781CC7B213E020782928D4
:1030200008D13EB917B1781EC7B201E04FF0010ACE
:1030300047B93DE02078222804D10EB9012000E0F4
:103040000020064647B9207820282FD0207889F81C
:10305000000009F1010929E020782C2804D1012081
:103060000290681CC5B214E02078202811D0207886
:1030700028280ED04DB9BBF1050F06DA20780DF8DF
:103080000B000BF1010000F0FF0B0298401CC0B2D6
:103090000290012F0AD10298022807D10298401C01
:1030A000C0B202900398401CC0B20390641CA9E710
:1030B00000BF0398012809D100200DF80B0082A160
:1030C0006846FFF773FE08B900200390079903983C
:1030D0000870002089F80000504609B0BDE8F08F64
:1030E000F0B503461546002000220026002455E0D6
:1030F0001F782C2F01D104B901221F78292F01D06C
:103100001F780FB904B94AE0002E34D11F78302F50
:1031100002DB1F78392F11DD1F78612F02DB1F784A
:10312000662F0BDD1F78412F02DB1F78462F05DD50
:103130001F78582F02D01F78782F0CD102B12EE0C3
:103140001F78612F03DB1F78203F0F7001E01F788D
:103150000F70491C1FE01F78222F04D102B11EE01E
:103160000126012417E01F78202F14D01F782C2F60
:1031700011D0FF2613E01F78222F00D1002402B1C6
:103180000DE044B11F785C2F02D15B1C471CF8B2E4
:103190001F780F70491C471CF8B25B1CA8E700BFE2
:1031A00000270F702E70F0BD02460020002105E0C0
:1031B000474B5B5C0344D8B24B1CD9B29142F7DB5E
:1031C00070472DE9F043B5B005460F4600240026B0
:1031D00004E000213E488155701CC6B20A2EF8DB7F
:1031E00006E06D1C287818B9012035B0BDE8F083E1
:1031F00028782828F5D16D1C61E034AA6946284654
:10320000FFF76EFF064635449DF8D00020B1012837
:1032100027D0FF284CD149E09DF8000000B333A926
:103220006846FFF7F6FD06460EB10220DDE72046B0
:10323000FFF7BAFF26490A31339A0A50A1F1240058
:10324000008B0121A140884321491A3908830421B8
:103250001F480155601CC4B20A2C01DD0320C4E7DD
:1032600026E06846FFF7BEFD401C00F0FF08204640
:10327000FFF79AFF16490A3100EB010949466846F3
:10328000FFF7A5FD12481A38018B0120A040014329
:1032900088B20F491A3908830D4800F80480601C71
:1032A000C4B20A2C01DD03209FE701E002209CE765
:1032B00000BF2878292801D0287800B900E09CE7D1
:1032C00000BF3C70002090E7766F6964000000004A
:1032D0009E0000200948804709480047FEE7FEE7B6
:1032E000FEE7FEE7FEE7FEE7FEE7FEE7FEE7FEE7B6
:1032F00004480549054A064B704700008F7E0008C8
:103300003101000860D4002060E0002060D8002077
:1033100060D8002000B585B001210420FDF7D4FD60
:1033200001214807FDF7DDFD1020ADF81000002059
:103330008DF8130003208DF8120004A9AD48FDF7A5
:1033400007FB1021AB48FDF7B0FB00200090019077
:1033500002900220039069460020FDF726F8012123
:103360000020FDF73FF800210846FDF79CF805B066
:1033700000BD2DE9F047064630461EF0D1F88146E3
:103380001DF03AFF07469C4A9C4B1DF0CDF90446C0
:103390000D4600229A4B204629461DF01DFC07468B
:1033A0000022984B1DF0C0F904460D4620462946E0
:1033B0001DF07EFB87B239460020FDF774F814201B
:1033C000FEF735FFBDE8F0872DE9F04F85B0824666
:1033D00014461D464FF0320B0020049050461DF05D
:1033E000ABFB06460F465046FFF7C3FF02AB1E225B
:1033F0000421002001F0C9FABAF1320F03DA0020EB
:1034000005B0BDE8F08FAAF1C8001DF07EFB804634
:10341000DDE902231DF0A4FB54D20AF1C8001DF01F
:1034200074FB8046DDE902231DF0D4FC4AD23FE064
:1034300050461DF081FB8046DDE902231DF000FDB2
:1034400032463B46CDE900011DF0FAFC06460F4628
:10345000304639461DF02CFB1FFA80F84046FFF736
:1034600088FF02AB32220421002001F08EFA504680
:103470001DF062FB22462B46CDE900011DF0D2FD76
:103480008046DDE902231DF06BFB0FD250461DF094
:1034900053FB804622462B461DF08AF8CDE90001F9
:1034A000DDE902231DF096FC00D204E0ABF1010B34
:1034B000BBF1000FBCDC00BFBBF1000F04D1012049
:1034C000049001E0012004900E9830B101F08DFFCE
:1034D0004DA0DDE9022302F031F80498C0B28FE775
:1034E0002DE9F043ADF54D7D06460024A146FFF7DA
:1034F00011FF0121192000F06CFD6420FEF797FEFA
:1035000000200246434B00903046FFF75DFF002548
:103510003FE0CAAB32220421002001F036FA00223B
:103520003D4BCB99CA981DF01BFB0FD200223B4BA1
:10353000CB99CA981DF04EFC08D202AA02EBC40235
:10354000CB99CA9803C2601C84B200E000240A2C04
:1035500018DD4FF0000901F048FF0A2102A804F02D
:1035600017FD07463A460B4627A001F0E7FF2C4916
:103570000978491EC8B20E2101F0DFFE29A001F032
:10358000DDFF08E04FF001090120FEF750FE681C46
:1035900085B2642DBDDB00BFB9F1010F1ED101F072
:1035A00024FF21A0CB9BCA9A01F0C8FF642102200E
:1035B00000F0A5FD02E00A20FEF739FE1E48006873
:1035C00008B9012000E000201B49091D096809B95C
:1035D000012100E0002108430028ECD1002119203E
:1035E00000F0F7FCC820FEF722FE0DF54D7DBDE88A
:1035F000F083000000080140CDCCCCCCCCCC1640F0
:103600000000B04000C8A940563D25332E32666DFB
:1036100056000000000014400004A04000789E40C6
:10362000870100204F4B0000563D25332E32666D3A
:1036300056204E47000000000081214210B50121B4
:103640000846FDF741FC0121EA48FDF752FA012145
:10365000C803FDF74EFA01210420FDF735FC0121D6
:103660000820FDF731FC01211020FDF72DFC012180
:103670002020FDF729FC01214020FDF725FC012138
:103680008020FDF721FC01210802FDF71DFC10BD83
:1036900008B54FF46070ADF8000010208DF80300FD
:1036A00003208DF802006946D348FDF751F908BDA3
:1036B00008B50C20ADF8000003208DF802001020A2
:1036C0008DF803006946CC48FDF742F90C21CA4841
:1036D000FDF7EBF908BD08B503208DF802001020B6
:1036E0008DF803004FF41940ADF800006946C34857
:1036F000FDF72EF91920ADF800006946C048FDF726
:1037000027F90F20ADF800006946BE48FDF720F903
:103710000F21BC48FDF7C9F94FF46040ADF8000037
:103720006946B848FDF714F94FF46041B548FDF714
:10373000BCF97020ADF800006946AF48FDF708F904
:103740007021AD48FDF7B1F9FF20ADF800006946E2
:10375000AD48FDF7FDF8FF21AB48FDF7A6F908BD20
:1037600008B54FF4E040ADF8000003208DF80200EA
:1037700010208DF803006946A448FDF7E9F84FF4DE
:103780000040ADF8000004208DF8030069469F4812
:10379000FDF7DEF84FF400519C48FDF786F908BDAF
:1037A00008B5E320ADF8000048208DF80300694615
:1037B0009248FDF7CDF84FF4C050ADF800006946CF
:1037C0009148FDF7C5F83020ADF8000069468D48F6
:1037D000FDF7BEF80320ADF8000069468B48FDF701
:1037E000B7F808BD08B54FF40040ADF8000003205D
:1037F0008DF8020010208DF8030069467F48FDF720
:10380000A7F808BD08B53020ADF8000003208DF8FA
:10381000020010208DF8030069467A48FDF798F8F9
:103820000120ADF8000069467848FDF791F808BD21
:1038300008B54FF47040ADF8000003208DF8020089
:1038400010208DF8030069467048FDF781F84FF4A9
:103850007F40ADF8000069466948FDF779F84FF4FC
:103860007840ADF8000069466348FDF771F84FF401
:10387000FE70ADF8000069466548FDF769F84FF441
:10388000F0415D48FDF713F94FF480515C48FDF7B6
:103890000EF94FF400415D48FDF709F94FF48471CA
:1038A0005B48FDF704F908BD08B54FF4C060ADF8FA
:1038B000000003208DF8020010208DF803006946F7
:1038C0005148FDF745F84FF4C0614F48FDF7EFF858
:1038D00008BD08B54FF4C050ADF8000003208DF8C6
:1038E000020010208DF8030069464548FDF730F8C6
:1038F00008BD08B548F2B800ADF8000003208DF807
:10390000020010208DF8030069463F48FDF720F8BB
:103910004FF478413C48FDF7CAF80320ADF80000A9
:1039200069463B48FDF714F803213948FDF7BFF815
:1039300008BD08B54FF40870ADF8000003208DF8FD
:10394000020010208DF8030069463048FDF700F8AA
:103950000320ADF8000069462748FCF7F9FF4FF453
:103960008070ADF8000048208DF8030069462748B4
:10397000FCF7EEFF03212048FDF797F84FF408719C
:103980002248FDF792F808BD08B54FF4C050ADF8D5
:10399000000003208DF8020010208DF80300694616
:1039A0001948FCF7D5FF08BD08B54FF4E070ADF835
:1039B000000010208DF8030069461248FCF7C8FF8C
:1039C0004FF4E0710F48FDF770F808BD10B5FFF730
:1039D00035FEFFF72DFFFFF7ACFFFFF765FFFFF7A1
:1039E000DFFEFFF7E1FFFFF753FEFFF761FEFFF792
:1039F00072FE10BD000230000018014000080140B6
:103A00000014014000100140001C0140000C014066
:103A10000020014070B50446002602F089FCA02079
:103A200002F040FD02F0C5FC201202F03BFD02F066
:103A3000C0FC2546E11704EB11610912A4EB01213A
:103A4000C8B202F02FFD02F0B4FC02F071FCA1201C
:103A500002F028FD02F0ADFC002002F057FD064602
:103A600002F086FC304670BD70B504460E4602F08A
:103A70005FFCA02002F016FD02F09BFC201202F079
:103A800011FD02F096FC2546E11704EB11610912C5
:103A9000A4EB0121C8B202F005FD02F08AFC304619
:103AA00002F000FD02F085FC02F062FC0A20FEF745
:103AB000BEFB70BD2DE9F04105460E4617460024B9
:103AC00009E0E20026FA02F2D1B22A1990B2FFF719
:103AD000CBFF601CC4B2BC42F3DBBDE8F0812DE932
:103AE000F04107460C460026002509E03602391948
:103AF000491B491E88B2FFF78DFF0644681CC5B2FA
:103B0000A542F3DB3046BDE8F08110B5FF20FFF79A
:103B100081FF0446552C01D1002010BD5521FF2006
:103B2000FFF7A2FFFF20FFF775FF0446552C01D1D8
:103B30000020F2E70120F0E770B506460C46154676
:103B400008E03046721C96B2FFF764FF04F8010BE0
:103B5000681E85B2002DF4D170BD70B505460C46C7
:103B6000164606E021782846FFF77EFF681C85B2DE
:103B7000641C3000A6F101018EB2F3D170BD2DE9B5
:103B8000F041074615461E4600241E4860C000BF8F
:103B900007E01C4A115D3A1990B2FFF765FF601CFF
:103BA000C4B2082CF5DBBDE8F0817CB505460024E5
:103BB00000BF07E0291988B2FFF72CFF114908550B
:103BC000601CC4B2082CF5DB0E4903C9CDE9000125
:103BD000DDE900210AB1012200E0002241EA0200F1
:103BE00020F00041084A511AC90F41B10020054A8E
:103BF000106050600022054B2846FFF7C0FF0149C6
:103C000003C97CBD780100200000F07F0000204047
:103C100030B500220023002828D1012926D1012413
:103C2000FD4D2C60FD4DC5F8B441FD4D2C602D1DA2
:103C30002C60FC4D2C602D1D2C602D1D2C602D1D2D
:103C40002C602D1D2C602D1D2C602D1D2C602D1D1C
:103C50002C60F14D083D2C602D1D2C60F04D343D45
:103C60002C602D1D2C602D1D2C6030BD0022C1E06C
:103C70000124944004EA0003B3F5807F6BD012DC8A
:103C8000102B49D008DC012B28D0022B2DD0042B7F
:103C900033D0082B6FD137E0202B44D0402B4AD0B3
:103CA000802BF7D14FE0B3F5005F7ED00CDCB3F58D
:103CB000007F58D0B3F5806F5ED0B3F5006F63D04E
:103CC000B3F5805FE6D168E0B3F5804F77D0B3F508
:103CD000004F7CD0B3F5803FDCD180E009B90124EE
:103CE00000E00024CC4D2C6082E009B9012400E002
:103CF0000024CB4D2D1F2C607AE009B9012400E08F
:103D00000024C74D2C6073E009B9012400E00024B1
:103D1000C34D2D1D2C606BE009B9012400E0002487
:103D2000C04D2C6064E009B9012400E00024BD4DC1
:103D30002D1D2C605CE009B9012400E00024B94D80
:103D400008352C6054E009B9012400E00024B54D89
:103D50000C352C604CE009B9012400E00024B14D81
:103D600010352C6044E009B9012400E00024AD4D79
:103D700014352C603CE03AE009B9012400E000244D
:103D8000A84D18352C6033E011B9012401E00CE096
:103D90000024A44D1C352C602AE009B9012400E060
:103DA00000249D4D083D2C6022E019B9012402E059
:103DB00005E00CE00024984D2D1F2C6018E009B997
:103DC000012400E00024964D343D2C6010E009B938
:103DD000012400E00024924D303D2C6008E009B938
:103DE000012400E000248E4D2C3D2C6000E000BF3B
:103DF00000BF521C112AFFF43BAF00BF35E770B57E
:103E000005460026002400BF9BE086485038006825
:103E100070B9062D0CD100210820FFF7F9FE01F042
:103E2000ACFA01F0E2FA80A001F088FB012070BD3D
:103E30000120FEF7FCF9701C86B20C2D68D2DFE879
:103E400005F067060E172029323B434C555E7A4831
:103E5000006810B9601C84B200E000245FE076487E
:103E6000001D006810B9601C84B200E0002456E018
:103E70006C485438006810B9601C84B200E000241B
:103E80004DE068485038006810B9601C84B200E00A
:103E9000002444E06248A438006810B9601C84B271
:103EA00000E000243BE05E48A838006810B9601CC0
:103EB00084B200E0002432E06048006810B9601C61
:103EC00084B200E000242AE05C48001F006810B9BA
:103ED000601C84B200E0002421E0584808380068E3
:103EE00010B9601C84B200E0002418E05348183870
:103EF000006810B9601C84B200E000240FE04F4855
:103F00001C38006810B9601C84B200E0002406E090
:103F100001F06BFA4AA001F011FB142400BF00BFAE
:103F2000642C00DD0EE041F28830864209DD01F0AC
:103F30005CFA484800EB051147A001F0FFFA0120A8
:103F400075E762E700BF002071E72DE9F041044604
:103F500000250026012712E00520FEF768F914B9B4
:103F6000681CC5B201E0701C86B2052D00DD07E0BB
:103F7000B6F5167F03DD01273846BDE8F081EBE793
:103F800000BF00273846F8E770B5044600251DE05D
:103F900004F0800020B100202849A031086003E02F
:103FA00001202649A031086001202449943108608D
:103FB0003C20FEF718F900202849C1F8B0013C2048
:103FC000FEF711F96006040E681CC5B2082DDFDB90
:103FD00070BD70B504460D4600266CB1012D04D1AC
:103FE0001F48006820431E490860EDBB1C4800685C
:103FF000A0431B49086045E0002019490860096892
:10400000C8B2FFF7C1FF0120164908601349C1F883
:10401000A00114490C3928E09801234200002242F3
:10402000B801224280812342B9E2D5A4B1BBD5DADE
:10403000B5B2202020200000008121421C01214235
:1040400053656E736F72204E4F2E204572726F72E1
:1040500000000000981902082573000000002142AA
:10406000800100208C8122420CE008606420FEF771
:10407000BAF80020F9490860F9490860F949C1F81F
:10408000800170BDE0B278B1F7480068C6B2304632
:10409000FFF77AFF0120F14908606420FEF7A3F8DA
:1040A0000020F049C1F88C0104F47F4080B1EE4853
:1040B0000068C0F307263046FFF766FF0120E84995
:1040C00008606420FEF78FF80020E849C1F8A001DD
:1040D00004F47F0088B1E4480068C0F30746304626
:1040E000FFF752FF0120DD490C3908606420FEF71C
:1040F0007AF80020DB49C1F8800100BFC1E770B544
:1041000004460D46002610E001210803FFF761FF79
:104110002846FEF78CF800214FF48050FFF759FF36
:104120002846FEF784F8701CC6B2A642ECDB70BDD0
:10413000FEB500240026CE4800680290CC49091D37
:1041400003C9CDE9000101F018F9042001F046F996
:1041500001F04BF9C7A001F0F1F901F046F9C9A04F
:1041600001F0ECF901F041F9AFF21410009901F0FF
:10417000E5F9C8490978491EC8B20C2101F0DDF8FB
:104180000EB1C5A000E0C6A00146AFF2341001F0A8
:10419000D5F900243EE0BF490978491EC8B2002184
:1041A00001F0CBF85DF82410AFF2541001F0C6F91D
:1041B0002CE003F0F5FF0546012D1AD106B900E009
:1041C0000020064602A931F814003146FFF720FD11
:1041D000B0490978491EC8B20C2101F0AEF80EB101
:1041E000ADA000E0AEA00146AFF2941001F0A6F938
:1041F00008E0022D01D1002609E0032D02D1601C48
:10420000C4B218E00121084603F092FFD1E700BFD5
:10421000601CC4B2022CBEDB01F0E7F8A2A001F0E2
:104220008DF901F0E2F8A5A001F088F94FF4FA70D9
:10423000FDF7FDFF00BF601EC4B202241FE0002690
:10424000611E02AA32F811003146FFF7E1FC01F0CD
:10425000CCF8601E5DF82010AFF2042001F06EF97A
:104260000EB18DA000E08EA00146AFF2142001F047
:1042700065F94FF4FA70FDF7DAFF601EC4B2002C46
:10428000DDD108F0D1F914210120FFF738FFFEBD80
:1042900070472DE9F84F814600200090002500244A
:1042A0004AF2D92600214FF40040FFF7B1FCB9F1E2
:1042B000000F5AD101210804FFF7AAFC84480078B6
:1042C000022805D101F091F882A001F037F937E01A
:1042D0007F48007801280DD17D48807C012809D1D4
:1042E00001F083F807F012FE074639467EA001F080
:1042F00025F925E076480078012821D17448807C92
:1043000001281DDD002417E0611CC8B20122002134
:10431000FFF7BEFFE11704EB91718910A4EB810157
:1043200009B901F062F8F2B2311274A001F006F995
:10433000701C86B2601C84B26548807CA042E3DCBD
:104340006348C07C00280FD16149887C1CF0F4FBD5
:1043500082468B466B49D1E90A733A4659461CF0AE
:1043600027F9684AC2E90A0134E101218803FFF70D
:104370004FFC00241EE0002516E004EB840000EB57
:10438000C400614911F82000401EA8420AD11DF85E
:10439000050004EB44015D4A02EB81010979084301
:1043A0000DF80500681C85B24948807CA842E4DC11
:1043B000601C84B204EB840000EBC400524901EBA2
:1043C0008000C06818B14248807C0128D3DC0025F9
:1043D00015E01DF805004E49095D084368B93C48E1
:1043E000C07C50B94749D1E90A710022494B38468F
:1043F0001CF0DEF8434AC2E90A01681C85B2344861
:10440000807CA84203DD3248807C0128E1DC304812
:104410000078022805D100F0E8FF3FA001F08EF8F7
:10442000D8E02B48007801280DD12948807C01284C
:1044300009D100F0DAFF07F069FD074639463BA0D5
:1044400001F07CF8C6E022480078012805D1204818
:10445000807C012801DD0024B8E0BBE08C81224291
:10446000A001214200802242800100200000214260
:10447000081A0208B5A5B2BDC4A3CABD20202020D9
:10448000200000004C3AB5F7CAD420523A4E4558A5
:104490005400000087010020D6C3CEBB00000000FE
:1044A000B8B4CEBB00000000B5F7CAD4BDE1CAF86D
:1044B000202020202020202000000000CFB5CDB3F8
:1044C000B8B4CEBB202020202020202000000000F7
:1044D000204B00202D2D2D2D2D2D504153532D2DB2
:1044E0002D2D2D2D00000000B9A4CEBB2D25643A42
:1044F0002D2D504153532D2D2D0000002563256394
:104500004F4B0000A8180020F41A02089033002036
:10451000F72A00200000F03F2D2D2D2D2D2D464196
:10452000494C2D2D2D2D2D2D00000000B9A4CEBB02
:104530002D25643A2D2D4641494C2D2D2D0000008E
:104540001DF8043023B9674B1B5D0BB9012300E054
:1045500000231A461DF8043013B9624B1B5D0BB1E2
:10456000012300E000231946631CD8B2FFF790FE38
:10457000E11704EB91718910A4EB810109B900F0F6
:1045800034FF5948C07C68B91DF8040010B9AFF277
:10459000900000E055A00346F2B2311254A000F0A2
:1045A000CDFF0FE01DF804004E4F3F5D384310B9BA
:1045B000AFF2B40000E04DA00346F2B231124CA0BD
:1045C00000F0BCFF701C86B2601C84B24A48807C3C
:1045D000A042B5DC4849887C1CF0AEFA82468B4686
:1045E0004649D1E90A733A4659461BF0E1FF434A6E
:1045F000C2E90A01BDE8F88F10B501214803FFF7B1
:1046000007FB6420FDF713FE00214FF40050FFF775
:10461000FFFA10BD70B505460C46002600BF13E03A
:1046200001214FF4E030FFF7F3FA611C88B2FDF787
:10463000FEFD00214FF4E030FFF7EAFA611C88B27A
:10464000FDF7F5FD701CC6B2AE42E9DB70BD10B5DA
:1046500000F093FE0021084600F06FFE28A000F055
:104660006DFF0021032000F068FE2AA000F066FF25
:104670000121084603F05CFD26E003F091FD0446AD
:10468000012C13D10021022000F057FE26A000F0DB
:1046900055FFFFF7B1FF0021022000F04EFE27A0DA
:1046A00000F04CFF6420FDF7C2FD02E0022C00D1B7
:1046B0000BE00021022000F040FE25A000F03EFFAC
:1046C0000121084603F034FDD7E700BF0121084669
:1046D00003F02EFD07F0A8FF14210120FFF70FFDC6
:1046E00010BD0000F72A0020783300204E4700005C
:1046F0002563256325730000204B002070180020DF
:10470000B0DAC5CCBBFAB4A5B7A2B2E2CAD42020B5
:10471000000000004C3AB4A5B7A220202020523A55
:10472000CDCBB3F600000000B4A5B7A2B0DAC5CC7B
:10473000BBFABFAACABC202000000000B4A5B7A2E3
:10474000B0DAC5CCBBFABDE1CAF8202000000000F9
:104750002020202020202020202020202020202059
:1047600000000000FE4908707047F0B5034603F0F2
:104770003F04D606350E0126FA4F3E600026FA4F5A
:10478000C7F88461002015E00026F64F3E6004F073
:10479000800626B10126F34F103F3E6003E000265D
:1047A000F04F103F3E600126EE4F3E606606340E2D
:1047B000461CF0B20828E7DB002017E00026E94F8E
:1047C0003E6001F4004626B10126E64F103F3E60F0
:1047D00003E00026E34F103F3E600126E14F3E60BC
:1047E0004FF6FF7606EA4101461CF0B2A842E5DB2F
:1047F0000126DE4F3E60F0BDF0B502460B460020BC
:1048000002F03F0646F04004DE06350E0126D54F85
:104810003E600026D44FC7F88461002115E00026D1
:10482000D04F3E6004F0800626B10126CD4F103FE8
:104830003E6003E00026CB4F103F3E600126C94F8B
:104840003E606606340E4E1CF1B20829E7DB0021FB
:104850000FE040000026C34F3E60C54ED6F82061F1
:10486000012E01D140F001000126BE4F3E604E1CDA
:10487000F1B2A942EDDB0126BC4F3E60F0BD70B540
:1048800004460D4604F01F004FF4004141EA401079
:1048900005F01F0140EA0106022231461020FFF711
:1048A00064FF022200212020FFF75FFFAC48007860
:1048B000032805D102220A212820FFF756FF18E01D
:1048C000A7480078022805D1022207212820FFF7F7
:1048D0004CFF0EE0A2480078012805D102220321F6
:1048E0002820FFF742FF04E0022200212820FFF7E2
:1048F0003CFF022248F210210120FFF736FF70BD75
:104900002DE9F74F82B09246DFF868B2002001909F
:10491000DDE90201FFF7B3FF00209449086000BF02
:10492000ABF101005FEA000B04D08E4884380068C8
:104930000028F5D1BBF1000F03D1012005B0BDE87F
:10494000F08F03210420FFF757FF019001981CF01E
:10495000F3F806460022884B1CF03EF980464FF0E3
:104960006042864B1BF0E0FE04460D46CAE9004556
:104970000020E3E770B504460D4616463246294648
:104980002046FFF7BDFF002070BD2DE9FF4FADF5BC
:104990004B7D92469946002413E04A46CC99CB9829
:1049A000FFF7AEFF20B101200DF54F7DBDE8F08F80
:1049B00002AA02EBC402D9E90010C2E90010601C8F
:1049C000C4B25445E9D300242AE0601C00F0FF0B78
:1049D00022E002A800EBC400D0E9007302A800EBBB
:1049E000CB0003C83A46CDE900011CF0B9F80FD25C
:1049F00002A800EBC40060C802A800EBCB0103C909
:104A000002AA02EBC40203C202A800EBCB0060C002
:104A10000BF1010000F0FF0BD345DAD3601CC4B2E8
:104A2000AAF10100A042D0D80021C9F80010C9F8AD
:104A3000041002240FE002A800EBC400D0E90073C8
:104A4000D9E900013A46CDE900011BF0B1FDC9E901
:104A50000001601CC4B2AAF10200A042EBD8801E83
:104A60001CF06AF8CDE9000102460B46D9E900784E
:104A7000384641461BF058FEC9E90001002093E783
:104A80002DE9F74F84B09346DFF8E8A000200290AC
:104A9000DDE90401FFF7F3FE00203449086000BFA0
:104AA000AAF101005FEA000A04D02E4884380068A9
:104AB0000028F5D1BAF1000F03D1012007B0BDE8FD
:104AC000F08F03210420FFF797FE029002981CF05C
:104AD00033F880460022284B1CF07EF806464FF043
:104AE0006042264B1BF020FE04460D460022224B5E
:104AF000204629461CF06EF946D8DFF878A015212B
:104B00000020FFF7BCFE00201849086000BFAAF192
:104B100001005FEA000A04D01248843800680028C7
:104B2000F5D1BAF1000F01D10220C7E7032104201B
:104B3000FFF762FE029002981BF0FEFF00220E4B70
:104B4000CDE900011CF048F806464FF060420B4BDF
:104B50001BF0EAFD80460022094B1BF029FD11E005
:104B600084010020A48121420000234284012342C9
:104B700000802142C0C62D000088B340FFFF6F4176
:104B800000C8A94004460D46CBE90045002095E742
:104B900070B5002400203649086001203549C1F86D
:104BA000A401FDF744FB012033490860002509E01A
:104BB000002031491031086001202E49C1F8A401BC
:104BC000681CC5B2462DF3DB0120FDF730FB022146
:104BD0000720FFF711FE84B24FF6F07020404FF629
:104BE000F07188421ADD084620400F2816DA00F0DE
:104BF000C4FB0021084600F0A0FB20A000F09EFCB2
:104C00000021012000F099FB214621A000F096FC34
:104C100003E0C8210120FFF772FAFAE700F0E5FB94
:104C200021461BA000F08AFC70BD01210020FFF787
:104C3000D0F9012080F3138800BF00BF1948006835
:104C400000F4E06018490843001D16490860BFF3EE
:104C5000408F00BF00BFFEE702220F210620FFF7B2
:104C600084FD4FF49670FDF7E2FAFFF7DEFF0000D7
:104C7000840123420080214294812142202020206F
:104C8000205761726E696E6720202020200000008E
:104C90004144432049443A253034582020204F4B8A
:104CA000000000000CED00E00000FA0510B5002047
:104CB000F7490860F749C1F898010120F6490860F2
:104CC0000020F649C1F8A0010220FDF78CFA01206E
:104CD000F34908600020F349C1F8B8010220FDF74C
:104CE00082FA10BD10B50120E94908600020E949A9
:104CF000C1F898010120E84908600020E749C1F89F
:104D0000A0010220FDF76FFA0120E54908600020AC
:104D1000E449C1F8B8010220FDF765FA10BD10B5ED
:104D20000020DB4908600120DA49C1F89801DA491E
:104D300008600020D949C1F8A0010220FDF753FA0C
:104D40000120D74908600020D649C1F8B8010220E7
:104D5000FDF749FA10BD10B50120CD490860CD49D5
:104D6000C1F89801CC4908600020CC49C1F8A001E5
:104D70000220FDF738FA0120C94908600020C9491E
:104D8000C1F8B8010220FDF72EFA10BD10B5FFF7EB
:104D90008DFFFFF7A7FFFFF7C2FFFFF7DCFF022041
:104DA000FDF721FA10BD70B505460C46BE48C08C13
:104DB000A04207DA00F019FB2146BCA000F0BEFBC0
:104DC00000BFFEE7601E84B204F00100B4490C315C
:104DD0000860C4F34000B149C1F8A801C4F38000E1
:104DE000AF4918310860C4F3C000091F0860C4F35C
:104DF0000010A74914390860C4F34010A8491C31B9
:104E00000860C4F38010A24908390860C4F3C010D8
:104E1000091F0860C4F30020A149091D0860412D45
:104E200006D0422D0BD0432D11D0442D1ED116E0BB
:104E30000020974908609749C1F898011BE00120BC
:104E40009349086000209349C1F8980113E00020BD
:104E50008F49086001208F49C1F898010BE00120BB
:104E60008B4908608B49C1F8980104E094A000F0D8
:104E700065FB00BFFEE700BF0020894908600120F4
:104E8000FDF7B1F901208549C1F8A001FDF7ABF9A3
:104E900070BD00208F4908607E49C1F8A0018D498E
:104EA0000C3908607A49103908608A490839086065
:104EB0007B49103108608749091F08607949C1F8AA
:104EC000BC01704770B506460C462546601E84B28C
:104ED0007548C08CA04207DA00F087FA214673A01B
:104EE00000F02CFB00BFFEE7412E06D0422E2DD055
:104EF000432E57D0442E78D181E004F0010064495C
:104F00000860C4F340006349C1F89801C4F380000D
:104F10005F4908390860C4F3C000091F0860002019
:104F20006C4908605B49C1F8A001012D05DB102D1B
:104F300003DC01206749086007E0112D05DB202D07
:104F400003DC01205249091D086089E004F00100DA
:104F50004F4914390860C4F340005049C1F8BC01FE
:104F6000C4F380004E4918310860C4F3C000091F23
:104F70000860002057490C3908604649C1F88C0187
:104F8000012D06DB102D04DC012052490C3908608C
:104F900007E0112D05DB202D03DC01203C491039F1
:104FA00008605DE004F001003D490C310860C4F385
:104FB00040003A49C1F8A801C4F380003849091DEE
:104FC0000860C4F3C000091F086000204149083987
:104FD00008603249C1F8B001012D07DB102D05DC56
:104FE00001203C490839086008E034E0112D05DB58
:104FF000202D03DC01202A491031086030E004F044
:10500000010025490860C4F340002649C1F8B401F5
:10501000C4F38000204908390860C4F3C0002D495A
:10502000091D086000202B49091F08601D49C1F8AF
:10503000BC01012D06DB102D04DC01202549091FD0
:10504000086007E0112D05DB202D03DC012012494B
:10505000091D086004E01AA000F070FA00BFFEE726
:1050600000BF70BD70B504460D460F4890F828008B
:1050700020B929462046FFF725FF34E00A4890F87A
:105080002800012828D129462046FFF78CFE2AE077
:105090009C01244200002442B88121420080224227
:1050A000A081224200802142204B0020B1E0B3CCFD
:1050B000B4EDCEF350494E3D25303464000000007D
:1050C000506F72742043686F696365204572726F18
:1050D00072000000B801234200F04FF934A000F044
:1050E0002DFA03F0F6F970BD10B5354890F8280098
:1050F00010B9FFF7CEFE0EE0314890F828000128E5
:1051000002D1FFF743FE06E000F037F928A000F0D7
:1051100015FA03F0DEF910BD2DE9F04106460F4601
:1051200014461D4639463046FFF79CFF2946204667
:10513000FFF798FF0220FDF756F8BDE8F0812DE952
:10514000F04706460F4614461D46DDE908893946F4
:105150003046FFF787FF29462046FFF783FF494681
:105160004046FFF77FFF0220FDF73DF8BDE8F087DE
:105170002DE9F05F06460F4614461D46DDE90CABEF
:10518000DDE90A8939463046FFF76CFF294620469B
:10519000FFF768FF49464046FFF764FF594650460F
:1051A000FFF760FF0220FDF71EF8BDE8F09F00004A
:1051B000BFAAB9D8B0E5C5E4D6C3B3F6B4ED0000D4
:1051C000204B002010B50146002006E0202200EB15
:1051D0000113F84CE254421CD0B21028F6DB10BD8B
:1051E00070B50546012D0DD10024F348047004E08C
:1051F0002020F0490855601CC4B2402CF8DB002088
:10520000EE4908700020EE49086000242EE0052CCD
:1052100004DA0020EA49091D086017E0072C11DDB7
:1052200004F0040070B905F0800020B10020E449CA
:10523000091D086003E00120E149091D08606806B6
:10524000050E03E00120DE49091D08600220FCF77D
:10525000CAFF0020DA49083108600220FCF7C3FFCA
:105260000120D849C1F8A401601CC4B2182CCEDBBF
:105270000020D349086070BD70B505460020D049B4
:105280000860002430E0052C01DB062C04D100204E
:10529000CB49091D086017E0072C11DD04F004005C
:1052A00070B905F0800020B10020C549091D0860D3
:1052B00003E00120C249091D08606806050E03E0ED
:1052C0000120BF49091D08600220FCF78CFF002067
:1052D000BB49083108600220FCF785FF0120B9496D
:1052E000C1F8A401601CC4B2182CCCDB0020B44966
:1052F000086070BD10B50446AE49AF4A12788C54B0
:105300002046FFF7B9FFAC480078401C00F03F0092
:10531000A94908700846007800F00F0060B90978C4
:1053200001F010018031A44A127802F0200201EB52
:10533000A201C8B2FFF754FF10BD70B504460D4678
:1053400004F00101802202EB011104F0020201EBE2
:10535000820101EB6501C8B2FFF742FF05F00100D1
:1053600030B1691E01EB0411924A505CFFF784FFD3
:1053700005EB04109049087070BD10B53820FFF798
:105380002FFF0520FCF753FF3820FFF729FF0520EA
:10539000FCF74DFF3820FFF723FF0520FCF747FF00
:1053A0000620FFF71DFF0520FCF741FF0120FFF756
:1053B00017FF0520FCF73BFF0C20FFF711FF05202E
:1053C000FCF735FF10BD10B5044603E014F8010BDF
:1053D000FFF790FF20780028F8D110BD7A490870B7
:1053E000C0F10401754A1170704710B57348007818
:1053F000042809DA714908780978491C6F4B19703B
:105400000021FFF79AFF22E06F480078C0F1040006
:105410000007040E0EE004F00F0018B9201100215F
:10542000FFF78BFF634A04F11001505CFFF762FF46
:10543000601CC4B2302CEEDB00210320FFF77DFF9F
:1054400062A017F0D9FF00210320FFF776FF10BDFF
:1054500010B50120FFF7C4FE0020584908705649D6
:10546000087010BD70B53420FFF7BAFE00261FE0AB
:10547000002518E0002412E005F18001C8B2FFF712
:10548000AFFE04F180013144C8B2FFF7A9FE00204D
:10549000FFF7F2FE0020FFF7EFFE601C84B2082C3D
:1054A000EADB681C85B2202DE4DB06F1080086B239
:1054B000092EDDDB3620FFF793FE3020FFF790FE4C
:1054C00070BD2DE9F04104464FF00008002734205C
:1054D000FFF786FE00BF27E0002620E000251AE047
:1054E00006F18001C8B2FFF77BFE05F18001394467
:1054F000C8B2FFF775FE41464A1C1FFA82F8605C8D
:10550000FFF7BAFE41464A1C1FFA82F8605CFFF7BB
:10551000B3FE681CC5B2082DE2DB701CC6B2202E9B
:10552000DCDB07F10800C7B2092FD5DB3620FFF717
:1055300057FE3020FFF754FEBDE8F0810FB400B5F0
:1055400091B013A810906846109A129917F042FF74
:105550006846FFF738FF0020109011B05DF814FB8B
:105560002DE9F04780460D46144699463420FFF752
:1055700037FE002645E005F00101802202EB011113
:105580003144C8B2FFF72CFE05F00201802202EB85
:10559000810101EB6401C8B2FFF722FE04F00E079F
:1055A00029E004F00100D8B1A74219D10020FFF78B
:1055B00063FE1EE0D02C0020850100208701002022
:1055C0009C0123420000234286010020202020204D
:1055D000202020202020202020202020000000004B
:1055E000B8F1000F01D0FF2100E000210846FFF7CD
:1055F00043FE781CC7B204EB0900B842D1DC701C32
:10560000C6B2102EB7DB3620FFF7EAFD3020FFF7D9
:10561000E7FDBDE8F087000008B50320ADF8000005
:1056200010208DF8030003208DF802006946FC4825
:10563000FBF78EF90321FA48FBF737FA08BD10B5DE
:10564000F748006820F0F000F54908600846006857
:1056500040F0300008600120F2490860F249C1F8CA
:1056600080010A20FCF7BFFD0020EE4908600A20F7
:10567000FCF7B9FD0020EC49C1F880010A20FCF7D5
:10568000B2FD10BD10B5E648006820F0F000E44916
:1056900008600846006840F0300008600020E149DA
:1056A000091F0860E049C1F884010A20FCF79BFD4E
:1056B0000120DC49091F0860DB49C1F884010A2088
:1056C000FCF791FD10BD10B50020D649091F0860F8
:1056D000D348006820F0F000D1490860084600680F
:1056E00040F0300008600120CF49C1F884010A2051
:1056F000FCF779FD0120CB49091F08600A20FCF75F
:1057000072FD0020C849C1F8800110BD10B500200D
:10571000C449091F0860C248006820F0F000C04971
:1057200008600846006840F0300008600020BE496C
:10573000C1F884010A20FCF756FD0120B949091F70
:1057400008600A20FCF74FFD0020B749C1F880012E
:1057500010BD10B50024B248006820F0F000B04938
:1057600008600846006840F0800008600120AD49EC
:1057700008600A20FCF737FD0120AB49C1F8800121
:105780000A20FCF730FD0AE0601CC4B2FA2C06DDEA
:10579000FFF778FFA5A0FFF7D1FE012010BDA148BB
:1057A000803800680028EFD19E49091F08600A2050
:1057B000FCF719FD0020F1E710B504469848006891
:1057C00020F0F000964908600846006840F030007C
:1057D00008601CB101209349086002E00020914953
:1057E00008600A20FCF7FFFC01208E49091F0860B1
:1057F0000A20FCF7F8FC00208B49C1F8800110BD9D
:1058000070B504468648006820F0F00084490860BE
:105810000846006840F03000086000208149091FF8
:10582000086000251EE004F0800018B101207D49C9
:10583000086002E000207B4908606006040E0A2030
:10584000FCF7D1FC01207749091F08600A20FCF70A
:10585000CAFC00207449C1F880010A20FCF7C3FC8F
:10586000681CC5B2082DDEDB70BD70B5054600248E
:105870006B48006820F0F00069490860084600683D
:1058800040F080000860002617E000206549091FED
:1058900008600A20FCF7A7FC01206349C1F88001D9
:1058A0006006040E5F488038006808B1601CC4B20E
:1058B0000A20FCF798FC701CC6B2082EE5DB15B96F
:1058C000FFF701FF01E0FFF721FF204670BD70B533
:1058D00006460D460024FFF7B2FE1A20FFF790FFA0
:1058E000FFF737FF04433046FFF78AFFFFF731FF2A
:1058F00004432846FFF784FFFFF72BFF0443FFF71D
:10590000C1FE204670BD10B50446FFF798FE1A2070
:10591000FFF776FFFFF71DFFB020FFF771FFFFF7DE
:1059200018FF2046FFF76CFFFFF713FFFFF7AAFEF3
:10593000002010BD70B5044600252046FFF7E3FFA8
:10594000FFF77DFE1B20FFF75BFFFFF702FF002044
:10595000FFF78BFF054600F00BFD284670BD2DE9D3
:10596000FC4704460D460022354B10464FF080415F
:105970001AF0BEF806460F460022324B2046294652
:105980001AF0D2FE804632463B461BF025F9CDE99F
:105990000001DDE900011BF08BF882460AF0FF01EF
:1059A0008420FFF794FFCAF307218320FFF78FFFBE
:1059B000CAF307418220FFF78AFFBDE8FC872DE983
:1059C000FC4704460D4600221D4B10464FF0804117
:1059D0001AF08EF806460F4600221A4B204629463A
:1059E0001AF0A2FE804632463B461BF0F5F8CDE9A0
:1059F0000001DDE900011BF05BF882460AF0FF01BF
:105A00008720FFF764FFCAF307218620FFF75FFFB7
:105A1000CAF307418520FFF75AFFBDE8FC87000065
:105A2000002001408401244200002442446576693C
:105A30006365204E4F2041434B2020200000000092
:105A400000003B4068FF4F4110B50446C4F3080412
:105A5000E1B28920FFF73BFF210A8820FFF737FFDB
:105A600010BD2DE9F04705460E46F74AF74B28468C
:105A700031461AF059FE07461BF01AF884B21F2C63
:105A800001DCA1460EE01F2C08DD40F2FE3084420E
:105A900004DC04F01F0040F4007903E004F01F0070
:105AA00040F4C06909F0FF018B20FFF710FF4FEAB7
:105AB00029218A20FFF70BFFBDE8F0872DE9F34F7E
:105AC00081B00446002632E08F20FFF733FF0090BC
:105AD000009800F002000090009840F0FD00FF28C0
